:100000000C946F000C94C50D0C94C50D0C94C50D8B
:100010000C94C50D0C94C50D0C94C50D0C94C50D18
:100020000C94C50D0C94C50D0C94C50D0C94C50D08
:100030000C94C50D0C94C50D0C94C50D0C94C50DF8
:100040000C946C070C94C50D0C94380A0C94C50DD7
:100050000C94C50D0C94C50D0C94C50D0C94C50DD8
:100060000C94CA0D0C94C50D0C94C50D0C94C50DC3
:100070000C94C50D0C94C50D0C94C50D0C94C50DB8
:100080000C94C50D0C94C50D0C94C50D0C94C50DA8
:100090000C94C50D0C94C50D0C94C50D0C94C50D98
:1000A0000C94C50D0C94C50D0C94C50D0C94C50D88
:1000B0000C94C50D010001028001020369001B9C24
:1000C0000369037D80037D037F001E03037F038696
:1000D0008003860387001E0503870389800011249F
:1000E0001FBECFEFD8E0DEBFCDBFE4EBF0E040E0D5
:1000F00017C0B591A59135912591059107FD0CC0CB
:1001000095918591EF01F92FE82F05900D92A21797
:10011000B307D9F7FE0104C01D92A217B307E1F798
:10012000ED3DF40731F70E949D030C945D0DF894AA
:02013000FFCFFF
:10013200000000000081811881810007000700147F
:100142007F147F14242A7F2A1223130864623649FB
:100152005522500005030000001C224100004122EC
:100162001C0014083E081408083E0808005030001D
:100172000008080808080060600000201008040257
:100182003E5149453E00427F40004261514946216D
:1001920041454B311814127F1027454545393C4AD9
:1001A2004949300171090503364949493606494929
:1001B200291E00363600000056360000081422417F
:1001C20000141414141400412214080201510906E7
:1001D200324979413E7E1111117E7F494949363EAD
:1001E200414141227F4141221C7F494949417F09C6
:1001F2000909013E4149497A7F0808087F00417F89
:1002020041002040413F017F081422417F4040408D
:10021200407F020C027F7F0408107F3E4141413E35
:100222007F090909063E4151215E7F091929464687
:100232004949493101017F01013F4040403F1F20B0
:1002420040201F3F4038403F631408146307087082
:1002520008076151494543007F41410002040810EB
:10026200200041417F00040201020440404040401E
:10027200000102040020545454787F484444383822
:1002820044444420384444487F3854545418087E27
:100292000901020C5252523E7F0804047800447D48
:1002A20040002040443D007F1028440000417F4030
:1002B200007C041804787C080404783844444438E8
:1002C2007C14141408081414147C7C0804040848D0
:1002D20054545420043F4440203C4040207C1C2085
:1002E20040201C3C4030403C44281028440C5050D4
:1002F200503C4464544C44000836410000007F00E6
:100302000000413608001008081008000000000034
:1003120011AE00A8013F2001004000D30100A1005E
:10032200C800DA011281017FA400A600D50180D99C
:0C03320001C2DB01208D01142E00AF0081
:10033E00AEE0B0E0E5EAF1E00C94340C4C016B0158
:10034E001A8219828FEF9FEF9C838B831E821D82F0
:10035E0058874F833A872987A12CB12CD6016D90EF
:10036E007C90F301EA0DFB1D808181110FC0D60137
:10037E00ED93FC938081853209F0D3C13F01BFEF2D
:10038E006B1A7B0AF6017182608219C0853279F38D
:10039E00B401082E000C990B0E9476084FEFA41A98
:1003AE00B40ADCCF8C32ACF08D32F9F489819A81AB
:1003BE0081609A8389833196D601ED93FC93D601A1
:1003CE00ED91FC9180818B3269F789819A818460ED
:1003DE00F0CF803221F489819A818860EACF83320E
:1003EE0051F489819A818061E4CF803321F489812F
:1003FE009A818260DECFB701C6010E949D0A9E835C
:10040E008D8397FF0BC029813A81B1E02B273A8368
:10041E0029839195819591099E838D8389819A81F6
:10042E0080FF03C08D7F9A838983D601ED91FC9165
:10043E00119780818E3249F43196ED93FC93B7017A
:10044E00C6010E949D0A9C838B83C6010E94D50B18
:10045E00582ED601ED91FC918081082E000C990B3F
:10046E000E948D0D893609F443C084F4833609F455
:10047E0002C134F4853209F427C18136E1F030C16E
:10048E008436B1F188360CF4D9C02AC1803709F40C
:10049E009AC03CF48E3609F4BCC08F3609F461C0A4
:1004AE001FC1853709F440C0883709F476C08337F9
:1004BE0009F016C1F3C0652D70E0A701CE010B96B1
:1004CE000E940000892B09F426C1D601ED91FC9102
:1004DE001197CF0101968D939C932081AE01455FBC
:1004EE005F4FBE016F5F7F4FC4010E94000010C1BD
:1004FE00652D70E0970141E050E0CE010B960E9411
:10050E009F06892B09F407C1F6018081918101961E
:10051E0091838083AE01455F5F4FBE016F5F7F4F5A
:10052E00C4010E942D06F4C0652D70E0970140E0D5
:10053E0050E0CE010B960E949F06892B09F4EBC06A
:10054E00D6018D919C91119701968D939C93AE013E
:10055E00455F5F4FBE016F5F7F4FC4010E94C208AF
:10056E00D7C0652D70E0970140E050E0CE010B96AC
:10057E000E949F06892B09F4CEC0F60180819181DD
:10058E00019691838083AE01455F5F4FBE016F5F21
:10059E007F4FC4010E94C607BBC0652D70E0970156
:1005AE0040E050E0CE010B960E949F06892B09F485
:1005BE00B2C0D601ED91FC911197CF0101968D93AA
:1005CE009C9320811CC0970140E050E060EF70E0EA
:1005DE00CE010B960E949F06892B09F49CC0F60152
:1005EE00808191810196918380838B859C85892B57
:1005FE0029F420E030E043E653E084C028E7AE0162
:10060E00455F5F4FBE016F5F7F4FC4010E9499042B
:10061E007FC0A501400F511F652D70E09701CE01DF
:10062E000B960E940000892B09F475C0D6018D919E
:10063E009C91119701968D939C9373C0652D70E0DC
:10064E00A701CE010B960E940000892B09F463C00E
:10065E00D601ED91FC911197CF0101968D939C934C
:10066E002081AE01455F5F4FBE016F5F7F4FC401BA
:10067E000E9400004DC0B0E85B124DC0F6018081B3
:10068E009181019691838083D701ED91FC91119711
:10069E00CF0102968D939C93808120C0B0E85B12AF
:1006AE003AC0F60180819181019691838083D701B2
:1006BE00ED91FC911197CF0102968D939C93408101
:1006CE00518120E030E01EC0B0E85B1224C0F6017C
:1006DE00208131812F5F3F4F318320838B870DC067
:1006EE0085E28B87D6016D927C921A8219821E82C8
:1006FE001D828FEF9FEF9C838B8321E030E0AE0154
:10070E00455F5F4FBE016F5F7F4FC4010E94F60AC7
:10071E008A0D9B1D07C0F601808191810196918300
:0C072E008083C5012E96EFE00C946B0C4C
:10073A00CF93DF9300D000D000D0CDB7DEB7219A97
:10074A000E94100D82E080938803809188031F9293
:10075A008F938CE491E09F938F930E94B60C7894C8
:10076A00809188030F900F900F900F90882361F06B
:10077A0065EF7BE084ED93E00E94490B0E94A20D95
:10078A00809182038823E1F389EC9DE00E94B40DF5
:10079A000E94AE0D8FE791E00E947B0D69EB7DE030
:1007AA0084ED93E00E94490B0E94A20D10928103EE
:1007BA00809181038823E1F3809186030E941F08B8
:1007CA008093850380918503882349F08AEA91E022
:1007DA000E947B0D809185030E94CB0A08C08FEC92
:1007EA0091E00E947B0D809185030E94CB0A809143
:1007FA0085038111DBCF0E94A80D0E944A098093CC
:10080A00840380918403882359F082E092E00E9455
:10081A007B0D809184030E94CB0A81E0809383033D
:10082A0061E081E00E949C0D80938403809184039F
:10083A008823B9F01F9211E01F931F921F938CE235
:10084A0092E09F938F930E94B60C809184030E943A
:10085A00CB0A109383030F900F900F900F900F9075
:10086A000F9060E08EE592E00E944D0C8093840325
:10087A0080918403882359F084E792E00E947B0DDB
:10088A00809184030E94CB0A81E080938303809144
:10089A008303811105C084EB92E00E947B0D04C0A2
:1008AA008CEE92E00E947B0D6EE27DE084ED93E097
:1008BA000E94490B0E94A20D0FE113E0CE0101969E
:1008CA007C01809187038823E1F31092870363E018
:1008DA0081E00E949C0D80938403809184030E948E
:1008EA00BD0D8091690390916A03A0916B03B09149
:1008FA006C03BF93AF939F938F931F930F93FF92B2
:10090A00EF920E94FE0C60E08EE592E00E944D0C90
:10091A0080938403809184030E94BD0D0FB6F894DE
:08092A00DEBF0FBECDBFCDCF33
:10093200AFE0B0E0EFE9F4E00C94310C1C016B0184
:100942005A8349832B83FB01828193818480958022
:1009520000811181A680B78097FD02C00D7F02C081
:1009620081E090E0E981FA81408051806280738069
:100972009801207133273D832C83740104FF08C042
:10098200411451046104710419F032E0E31AF108D0
:10099200F801E870FF27FF83EE8303FF03C0F1E055
:1009A200EF1AF108F6010084F185E02D3197FF87F7
:1009B200EE87EA0DFB1D10829C012E193F09398733
:1009C2002887C801827099279B878A87EB818E2F9F
:1009D200EE0F990B9C01215431093D872C872E85FE
:1009E2003F852230310530F48C819D81892B09F0BD
:1009F20042C05CC0411451046104710461F18E85EE
:100A02009F8501979F878E87C2018F7099278A30B1
:100A1200910514F4C09602C0895A9F4FEC85FD855A
:100A22007A9748F49C012062215631092A31310516
:100A320010F40E94840DEE85FF85EA0DFB1D808374
:100A4200F1E0EF1AF10884E07694679457944794A2
:100A52008A95D1F7C4CF888599858E0D9F1D18166A
:100A620019066CF21E141F040CF0BECFEA85FB853A
:100A7200EF2B29F6B9CFE981FA8180819181A28198
:100A8200B381892B8A2B8B2B89F0EE85FF85EA0DAA
:100A9200FB1D31972B8120838E859F8502979F872F
:100AA2008E87FC01EA0DFB1D80E38083EE81FF81CE
:100AB200EF2B59F02E853F85215031093F872E8734
:100AC200F901EA0DFB1D80E28083F6014085518524
:100AD200415051092E853F85421B530BB9016A0DC6
:100AE2007B1D9401C1010E94FF099C01F1018081DB
:100AF200918190FF06C0F60182819381821793074C
:0C0B02000CF4C9012F96E2E10C94680C81
:100B0E00FF920F931F93CF93DF93C82F862F8F7073
:100B1E0090E0009709F03AC0607F11F010E801C034
:100B2E0010E080917303609171038B5F0E94910BB3
:100B3E00811186C08CE30E94520D811181C080E428
:100B4E000E949D0C81117CC08C2F90E08097EC014F
:100B5E00CC0FDD1FCC0FDD1FC80FD91FCE5CDE4FB3
:100B6E0005E0FE018491812B0E949D0C811168C0CD
:100B7E008091730390917403019690937403809304
:100B8E007303015021960111ECCF47C0019709F074
:100B9E0043C0607F11F010E801C010E08091730334
:100BAE0060917103865F0E94910B811149C08CE3A5
:100BBE000E94520D811144C080E40E949D0C81114F
:100BCE003FC08C2F90E08097EC01CC0FDD1FCC0F37
:100BDE00DD1FC80FD91FCE5CDE4F0F2EF5E0FF2EA6
:100BEE00F02DFE010491012B802F0E949D0C81118E
:100BFE0027C0802F0E949D0C811122C0809173030B
:100C0E009091740302969093740380937303FA94F5
:100C1E002196F110E6CF01C010E0812F0E949D0CAD
:100C2E00C82F81110DC080917303909174030196AA
:100C3E0090937403809373030E94C10D8C2F00C098
:0C0C4E00DF91CF911F910F91FF9008954E
:100C5A00A2E0B0E0E3E3F6E00C94310C3C016B0156
:100C6A00FB0122813381A480B580808191819A839E
:100C7A00898386809780FA01208031804280538060
:100C8A00B201A10157FE07C044275527BA014219EC
:100C9A0053096409750937FD03C08D7F9A838983D7
:100CAA00950157FC05C0898182FD02C083FF02C0FD
:100CBA0021503109CE0101967C010AE010E0C601FB
:100CCA000E94070757FC03C0298122FF0AC0019727
:100CDA00F401E80FF91F57FC02C02BE209C02DE20C
:100CEA0007C023FF06C00197F401E80FF91F20E2AD
:100CFA00208309811A81F6014085518541505109A5
:100D0A00481B590BB401680F791F9501C3010E9452
:100D1A00FF099C01F3018081918190FF06C0F601D1
:100D2A0082819381821793070CF4C9012296E2E12A
:040D3A000C94680CA1
:100D3E00CF93DF93DC01F90168387105F1F05CF4B3
:100D4E006138710561F164387105A1F16038710582
:100D5E0009F051C02FC0603C710509F441C0603FDD
:100D6E007105F1F1603A710509F045C0C081D1817C
:100D7E00CE0102969183808325C0C081D181CE01A0
:100D8E00029691838083452B39F04881042E000C06
:100D9E00550B660B770B1CC0488150E029C0C081F3
:100DAE00D181CE01049691838083488159816A81D5
:100DBE007B810EC0C081D181CE010296918380834A
:100DCE00452BA1F048815981052E000C660B770B3F
:100DDE004D935D936D937C93139781E090E00DC0DE
:100DEE00C081D181CE010296918380834881598141
:100DFE0060E070E0EDCF80E090E0DF91CF9108955C
:100E0E00A0E0B0E0EDE0F7E00C94330CDC0128013B
:100E1E001696AD90BC901797F7018081918112962E
:100E2E00ED91FC9113971896CD91DC91199721971E
:100E3E00F7FF02C0E1E0F0E0CA0DDB1D1882690188
:100E4E00A1E0B0E08F01021B130B4C01F2E08F22E8
:100E5E009924052C000C66087708CE018A199B0987
:100E6E00CA15DB0519F1411551056105710589F0AA
:100E7E00CB01BA01A30192010E94B30BCA01A62FA6
:100E8E00B72F605D6A9341E0C41AD108A901BC0175
:100E9E00E4CF98012C0D3D1D121613064CF31C14B5
:100EAE001D0434F48114910419F702C080E090E01F
:100EBE00AB2B31F4F701208131812F7E31832083DA
:0A0ECE00CDB7DEB7E0E10C946A0C2A
:100ED8001F920F920FB60F9211242F933F934F93A7
:100EE8005F936F937F938F939F93AF93BF93EF938A
:100EF800FF938091770390917803019690937803FC
:100F0800809377032091790330917A0382179307AE
:100F180040F1109278031092770380916D039091BD
:100F28006E03A0916F03B09170030196A11DB11DCE
:100F380080936D0390936E03A0936F03B093700337
:100F480095B182E0892785B960916D0370916E0330
:100F580080916F0390917003E0917503F09176038F
:100F68000995FF91EF91BF91AF919F918F917F91DB
:100F78006F915F914F913F912F910F900FBE0F90FE
:040F88001F90189509
:100F8C00A2E0B0E0ECECF7E00C94350C4C016B01FA
:100F9C00FB012281338164807580808191819A83E9
:100FAC008983A680B78037FD03C08D7F9A838983A0
:100FBC00FA014081518162817381CE0101967C01DD
:100FCC0008E010E09301C6010E940707298124FF65
:100FDC0006C00197F501E80FF91F20E32083298152
:100FEC0023FF06C00197F501E80FF91F20E22083CB
:100FFC0009811A81F6014085518541505109481BE0
:10100C00590BB501680F791F9301C4010E94FF09A8
:10101C009C01F4018081918190FF06C0F6018281D0
:10102C009381821793070CF4C9012296EEE00C947D
:02103C006C0C3A
:10103E00CF92DF92EF92FF921F93CF93DF93C82F41
:10104E00E2E1F3E014910E94460D8C2F0E94520DA6
:10105E00811135C084EE0E943A0D811132C089EFA4
:10106E0090E00197F1F700C000000F2EF3E1CF2EB4
:10107E00F3E0DF2EF02D1EC0E6012196F6018491DD
:10108E000E943A0D81111FC0FE01E490F12CF2E096
:10109E00EF0EF11CEC0CFD1C219607C0FE01849195
:1010AE000E943A0D2196811110C06E01CE15DF05FA
:1010BE00A9F711501111E0CF0E94C10D07C0182FD2
:1010CE0005C0182F03C0182F01C0182F812FDF91D4
:0E10DE00CF911F91FF90EF90DF90CF9008957B
:1010EC000F931F93CF93DF93DB01109719F48FEFBE
:1010FC009FEF3DC02D913C91119730FF25C0169666
:10110C004D915C91179714962D913C911597421720
:10111C00530778F41296ED91FC91139780831296F5
:10112C002D913C9113972F5F3F4F13963C932E9329
:10113C00129716962D913C9117972F5F3F4F17964C
:10114C003C932E93169713C01C96ED91FC911D9712
:10115C00309769F2EB01092F182F0995892B39F675
:10116C008E819F8101969F838E83812F902FDF919B
:08117C00CF911F910F9108951E
:10118400A2E0B0E0E8ECF8E00C94350C5C016B01F3
:10119400FB012281338184809580808191819A83AF
:1011A40089836680778037FD03C08D7F9A83898326
:1011B400FA014081518162817381CE0101967C01E3
:1011C4000AE010E09401C6010E94070709811A8110
:1011D400F6014085518541505109481B590BB30113
:1011E400680F791F9401C5010E94FF099C01F50154
:1011F4008081918190FF06C0F601828193818217DC
:0E12040093070CF4C9012296EEE00C946C0CDA
:101212000F931F93CF93DF93C82FD62F142F022F34
:101222008CE30E94520D81112FC081E20E943A0D7F
:1012320081112AC08C2F0E943A0D811125C08D2F59
:101242000E943A0D811120C08C2F90E0909374037C
:101252008093730382E20E943A0D811115C0812F9F
:101262000E943A0D811110C0802F0E943A0DC82FA2
:1012720081110AC0812F90E09093720380937103D1
:101282000E94C10D8C2F00C0DF91CF911F910F9151
:021292000895BD
:10129400CF93DF938CE30E94520D811135C081E21C
:1012A4000E943A0D811130C00E943A0D81112CC068
:1012B4008FE70E943A0D811127C010927403109297
:1012C400730382E20E943A0D81111EC00E943A0DFE
:1012D40081111AC087E00E943A0D811115C0109245
:1012E40072031092710380E40E949D0C81110CC062
:1012F400C0E0D4E080E00E949D0C811105C02197DC
:0E130400C9F70E94C10D80E0DF91CF910895DE
:10131200A2E8B0E0EFE8F9E00C94370C5C014A0176
:10132200CF57DF4F79836883C158D040C12CD12C6D
:10133200CF57DF4FE881F981C158D040808188239F
:10134200E9F07401860120E830E0AE014F5F5F4FA3
:10135200BE016F577F4FC5010E949F018C0D9D1DDD
:101362008C159D054CF48FE490E0909301018093DD
:1013720000018FEF9FEF03C06C01DACFC601CE5799
:08138200DF4FECE00C946E0C4F
:10138A00A0E1B0E0EBECF9E00C943D0CFB01BA01F2
:10139A00AE014F5F5F4F7A0140E1D7011D924A9536
:1013AA00E9F742E051E05A8349839C838B83F7FF34
:1013BA0009C08FE490E090930101809300018FEFC0
:1013CA009FEF14C0A9018C013197FE83ED83C701F9
:1013DA000E94E60C4F8158852D813E8142175307A2
:1013EA0008F49A01F801E20FF31F10826096E6E012
:0413FA000C94740CCF
:1013FE00A0E0B0E0E5E0FAE00C94370C6C015B0184
:10140E007A01E901480181E08822992400FD03C098
:10141E004217530750F0A701B501C6010E94140CE4
:10142E00EC16FD0610F0C70117C08E010E191F092C
:10143E000115110541F0B60180E290E00E94760898
:10144E0001501109F5CF8114910429F4A701B501BA
:10145E00C6010E94140CCE01CDB7DEB7ECE00C94A1
:02146E006E0C02
:101470001F920F920FB60F9211241F932F933F9339
:101480004F935F936F937F938F939F93AF93BF938C
:10149000CF93DF93EF93FF93C6ECD0E01881E091F8
:1014A0007B03F0917C03812F099518837894FF9139
:1014B000EF91DF91CF91BF91AF919F918F917F91EC
:1014C0006F915F914F913F912F911F910F900FBEA0
:0614D0000F901F9018951B
:1014D6000F931F93CF93DF938C010F5F1F4FFC0178
:1014E60080816115710519F48FEF9FEF1EC0FB0116
:1014F60024853585232BC1F3EB01EC85FD85BE01E3
:10150600882339F00995892B79F7F80181918F01A4
:10151600F4CF8AE0099521E030E0892B11F420E030
:1015260030E088279927821B930BDF91CF911F917B
:041536000F91089574
:10153A00DC01ED91FC91119780818A3221F080E0E3
:10154A0090E03AE00EC03196ED93FC93DB01ED9109
:10155A00FC911197CF0102968D939C938081918182
:10156A000895ED91FC911197208120532A3068F457
:10157A00389FA001399F500D1124CA01820F911D75
:0C158A0031961196FC93EE93ECCF08957F
:101596000F931F93CF93DF9300D000D0CDB7DEB764
:1015A6001F928F9384E391E09F938F938E010F5F39
:1015B6001F4F1F930F930E94FE0C1F930F9389E3F7
:1015C60091E09F938F930E94B60C0FB6F894DEBFFE
:1015D6000FBECDBF0F900F900F900F90DF91CF9160
:0615E6001F910F91089512
:1015EC00A0E0B0E0ECEFFAE00C94390C7C01FB01CC
:1015FC00EA01C901A280B380C480D5800081118129
:10160C00209711F4CCE5D3E0009719F4CE010E9499
:10161C00200DB7FC04C0A816B90608F4C501960144
:10162C00AC01BE01C7010E94FF09CDB7DEB7EAE0ED
:04163C000C94700C8E
:101640008130910581F08830910581F080349105D9
:1016500081F0811521E0920779F081159440B9F469
:1016600084E090E00BC080E090E008C081E090E072
:1016700005C082E090E002C083E090E0880F991FEF
:10168000880F991FFC01E85CFC4F8281089581E07E
:021690000895BB
:101692000F931F93CF93DF938C01EB0116BC14BC05
:1016A20015BA80E490E00E94200B95B5892B85BD88
:1016B20010937A030093790310926D0310926E03D4
:1016C20010926F0310927003D0937603C093750348
:0A16D200DF91CF911F910F91089551
:1016DC00E9EBF0E080818775808385EA8093BC001C
:1016EC008FEF91E0ECEBF0E02081222314F00197D6
:1016FC00D9F78091B900887F883049F08091B90082
:10170C00887F803131F08091B900887F089580E026
:06171C00089580E008952D
:10172200CF938823E4F4C62F6730A0F482E090E0E0
:1017320090937403809373036091710370917203A9
:101742006F5F7F4F70937203609371030E949C0DD1
:10175200811106C081E0C73018F480E001C080E04A
:04176200CF91089586
:10176600A1E21A2EAA1BBB1BFD010DC0AA1FBB1F9F
:10177600EE1FFF1FA217B307E407F50720F0A21B11
:10178600B30BE40BF50B661F771F881F991F1A947E
:1017960069F760957095809590959B01AC01BD01A8
:0417A600CF010895D2
:1017AA00CF93DF93EC0190E0E92FF0E0EE0FFF1FFB
:1017BA00EE5DFC4F8081811102C081810EC0A8813B
:1017CA00B9812C91821305C091811196B983A8839E
:1017DA0001C09F5F9B3040F3892FDF91CF9108951D
:1017EA0080918803815080938803809188038111B6
:1017FA0007C00E94A80D299881E08093820308956A
:10180A00809188031F928F9382E091E09F938F9338
:0E181A000E94CE0C0F900F900F900F9008952B
:10182800A0E0B0E0EAE1FCE00C943B0C6C01EB01B9
:101838008A017B01E40EF51ECE15DF0541F0899182
:10184800B601082E000C990B0E947608F5CFC80146
:0A185800CDB7DEB7E8E00C94720C87
:101862002F923F924F925F926F927F928F929F92AE
:10187200AF92BF92CF92DF92EF92FF920F931F939C
:10188200CF93DF93CDB7DEB7CA1BDB0B0FB6F8944D
:08189200DEBF0FBECDBF0994BB
:10189A000F931F93CF93DF93FC018081882369F014
:1018AA00D62F8F01C0E0CF5F6D2F0E948705F80108
:1018BA00EC0FF11D80818111F6CF80E0DF91CF918D
:0618CA001F910F9108952B
:1018D0002A88398848885F846E847D848C849B84C0
:1018E000AA84B984C884DF80EE80FD800C811B81CE
:1018F000AA81B981CE0FD11D0FB6F894DEBF0FBEFD
:06190000CDBFED010895CA
:10190600880F8093BB0084E88093BC008FEF91E042
:10191600ECEBF0E02081222314F00197D9F78091B7
:10192600B900887F883121F08091B900887F0895B9
:0419360080E00895B0
:10193A008093BB0084E88093BC008FEF91E0ECEBCE
:10194A00F0E02081222314F00197D9F78091B900A1
:10195A00887F883221F08091B900887F089580E0DD
:02196A000895DE
:10196C00A0E0B0E0ECEBFCE00C94410CAE014B5F62
:10197C005F4FFA0161917191AF01E0917D03F0919C
:10198C007E03808191810E94E60CE2E00C94780C3D
:10199C00A0E0B0E0E4EDFCE00C94410CAE014B5F38
:1019AC005F4FFA0161917191AF01E0917D03F0916C
:1019BC007E03808191810E94E60CE2E00C94780C0D
:1019CC00A2E0B0E0ECEEFCE00C943F0C8C015A83EE
:1019DC004983AE014F5F5F4F0E948909F801208156
:1019EC0024FF02C08FEF9FEF2296E4E00C94760C5C
:1019FC00A0E0B0E0E4E0FDE00C94410CAE01475FE8
:101A0C005F4F6F8178858D819E810E94950DE2E0FC
:041A1C000C94780CA2
:101A200087E68093C4001092C5001092C00088E140
:101A30008093C10086E08093C2000E94720D0895D9
:101A4000FC01AF014F5F5F4F2081222311F0FA01AB
:0C1A5000F8CF9F01281B390BC901089535
:101A5C006093690370936A0380936B0390936C0398
:081A6C0081E0809387030895D7
:101A7400CF93C82F80E80E949D0C811103C08C2F46
:081A84000E949D0CCF91089512
:101A8C0082E08093B800E9EBF0E080819081827075
:081A9C008160892B808308950D
:101AA400CF93C82F0E946E0B811103C08C2F0E940C
:061AB400830CCF910895A0
:101ABA00EC010E94CC0D0E94CB0DCE010E94CD0DEF
:061ACA00CE010E94C70DD1
:101AD000E0ECF0E0908195FFFDCF8093C60080E0C0
:041AE00090E00895F5
:101AE400E0917D03F0917E038CE493E09183808305
:021AF400089553
:101AF600E0917D03F0917E03608171810E946B0A03
:021B0600089540
:101B08009C01215631092A31310510F48F75992726
:021B180008952E
:101B1A009C01215431092A31310508F48062089563
:0E1B2A009A01AB016FEF7FE70E94C509089595
:0C1B3800462F27E06FE70E94090908957E
:0C1B4400EEE6F0E080818160808308956F
:0C1B5000EEE6F0E080818E7F8083089537
:0C1B5C00E1ECF0E0808180688083089557
:0A1B680090937C0380937B030895A3
:081B720081E0809381030895D6
:081B7A0081110E94CB0A0895BD
:081B820084E98093BC00089582
:041B8A000C940000B7
:041B8E000E9497001A
:021B92000895B4
:021B94001895A2
:021B96000895B0
:021B98000895AE
:021B9A000895AC
:101B9C0025642073656B756E6465722074696C6264
:101BAC006167652074696C20416461667275697443
:101BBC0020446973706C6179204F70737461727416
:101BCC000A003078257800446973706C6179204381
:101BDC006F6465203A2025730A000A56656E746599
:101BEC007220692025642073656B756E64657220A4
:101BFC0070E5204164616672756974204469737084
:101C0C006C6179204F7073746172740A000A0A4E09
:101C1C00752073746172746572207669206D6564C9
:101C2C0020617420746573746520446973706C61F1
:101C3C007965742021212100446973706C617920CD
:101C4C004E4F542070726F7065726C7920696E699A
:101C5C007469616C697A656420212121004469737F
:101C6C00706C61792070726F7065726C7920696E1E
:101C7C00697469616C697A65642069204469737060
:101C8C006C617954657374436F6465202121210064
:101C9C0046656A6C207665642066756E6B74696F38
:101CAC006E656E203A20535344313330365F436CAB
:101CBC0065617253637265656E0046656A6C207669
:101CCC0065642066756E6B74696F6E656E203A2064
:101CDC00535344313330365F536574506F736974AA
:101CEC00696F6E2825642C2564290A006834706499
:101CFC003031313132352073747972657220212183
:101D0C00210046656A6C207665642066756E6B747E
:101D1C00696F6E656E203A20535344313330365F11
:101D2C0044726177537472696E67282757616974BE
:101D3C00696E6720212121272C204E4F524D414C9A
:101D4C002900446973706C61792070726F706572D0
:101D5C006C7920696E697469616C697A6564206F4D
:101D6C006720696E67656E2066656A6C20686572AF
:101D7C0065667465722021212100446973706C6161
:101D8C00792070726F7065726C7920696E697469F4
:101D9C00616C697A6564206D656E2066656A6C207D
:101DAC0068657265667465722021212100256400C6
:101DBC0068076C094C836A9074A07AC000806888AC
:061DCC0000846C8200811E
:101DD20001000100080002004000030000010400AD
:041DE20000040500F4
:101DE600030000000000000000000000680D000075
:071DF600286E756C6C2900DA
:061DFD00286E696C29004C
:021E03007F035B
:011E05003CA0
:00000001FF
