:100000000C9475000C94ED0A0C94B70A0C94BD0E78
:100010000C94BD0E0C94BD0E0C94BD0E0C94BD0E34
:100020000C94BD0E0C94BD0E0C94BD0E0C94BD0E24
:100030000C94BD0E0C94BD0E0C94BD0E0C94BD0E14
:100040000C94B3070C94BD0E0C94220B0C94BD0EB3
:100050000C94BD0E0C94BD0E0C94BD0E0C94BD0EF4
:100060000C94C20E0C94BD0E0C94BD0E0C94BD0EDF
:100070000C94BD0E0C94BD0E0C94BD0E0C94BD0ED4
:100080000C94BD0E0C94BD0E0C94BD0E0C94BD0EC4
:100090000C94BD0E0C94BD0E0C94BD0E0C94BD0EB4
:1000A0000C94BD0E0C94BD0E0C94BD0E0C94BD0EA4
:1000B0000C94BD0E010001028001020391001D8E0F
:1000C0000391039D80039D03A300201D03A303BB95
:1000D0008003BB03BD00202303BD03C48003C4030E
:1000E000C500202503C503C7800011241FBECFEF24
:1000F000D8E0DEBFCDBFE4EBF0E040E017C0B59143
:10010000A59135912591059107FD0CC0959185919B
:10011000EF01F92FE82F05900D92A217B307D9F739
:10012000FE0104C01D92A217B307E1F7E93EF407F0
:0E01300031F70E94FD050C94590EF894FFCF94
:10013E000000000000818118818100070007001473
:10014E007F147F14242A7F2A1223130864623649EF
:10015E005522500005030000001C224100004122E0
:10016E001C0014083E081408083E08080050300011
:10017E00000808080808006060000020100804024B
:10018E003E5149453E00427F400042615149462161
:10019E0041454B311814127F1027454545393C4ACD
:1001AE00494930017109050336494949360649491D
:1001BE00291E003636000000563600000814224173
:1001CE0000141414141400412214080201510906DB
:1001DE00324979413E7E1111117E7F494949363EA1
:1001EE00414141227F4141221C7F494949417F09BA
:1001FE000909013E4149497A7F0808087F00417F7D
:10020E0041002040413F017F081422417F40404081
:10021E00407F020C027F7F0408107F3E4141413E29
:10022E007F090909063E4151215E7F09192946467B
:10023E004949493101017F01013F4040403F1F20A4
:10024E0040201F3F4038403F631408146307087076
:10025E0008076151494543007F41410002040810DF
:10026E00200041417F000402010204404040404012
:10027E00000102040020545454787F484444383816
:10028E0044444420384444487F3854545418087E1B
:10029E000901020C5252523E7F0804047800447D3C
:1002AE0040002040443D007F1028440000417F4024
:1002BE00007C041804787C080404783844444438DC
:1002CE007C14141408081414147C7C0804040848C4
:1002DE0054545420043F4440203C4040207C1C2079
:1002EE0040201C3C4030403C44281028440C5050C8
:1002FE00503C4464544C44000836410000007F00DA
:10030E000000413608001008081008000000000028
:10031E0011AE00A8013F2001004000D30100A10052
:10032E00C800DA011281017FA400A600D50180D990
:0C033E0001C2DB01208D01142E00AF0075
:10034A00AEE0B0E0EBEAF1E00C941E0D4C016B015B
:10035A001A8219828FEF9FEF9C838B831E821D82E4
:10036A0058874F833A872987A12CB12CD6016D90E3
:10037A007C90F301EA0DFB1D808181110FC0D6012B
:10038A00ED93FC938081853209F0D3C13F01BFEF21
:10039A006B1A7B0AF6017182608219C0853279F381
:1003AA00B401082E000C990B0E94BD084FEFA41A45
:1003BA00B40ADCCF8C32ACF08D32F9F489819A819F
:1003CA0081609A8389833196D601ED93FC93D60195
:1003DA00ED91FC9180818B3269F789819A818460E1
:1003EA00F0CF803221F489819A818860EACF833202
:1003FA0051F489819A818061E4CF803321F4898123
:10040A009A818260DECFB701C6010E94870B9E8364
:10041A008D8397FF0BC029813A81B1E02B273A835C
:10042A0029839195819591099E838D8389819A81EA
:10043A0080FF03C08D7F9A838983D601ED91FC9159
:10044A00119780818E3249F43196ED93FC93B7016E
:10045A00C6010E94870B9C838B83C6010E94BF0C36
:10046A00582ED601ED91FC918081082E000C990B33
:10047A000E94890E893609F443C084F4833609F44C
:10048A0002C134F4853209F427C18136E1F030C162
:10049A008436B1F188360CF4D9C02AC1803709F400
:1004AA009AC03CF48E3609F4BCC08F3609F461C098
:1004BA001FC1853709F440C0883709F476C08337ED
:1004CA0009F016C1F3C0652D70E0A701CE010B96A5
:1004DA000E940000892B09F426C1D601ED91FC91F6
:1004EA001197CF0101968D939C932081AE01455FB0
:1004FA005F4FBE016F5F7F4FC4010E94000010C1B1
:10050A00652D70E0970141E050E0CE010B960E9404
:10051A00E606892B09F407C1F601808191810196CB
:10052A0091838083AE01455F5F4FBE016F5F7F4F4E
:10053A00C4010E947406F4C0652D70E0970140E082
:10054A0050E0CE010B960E94E606892B09F4EBC017
:10055A00D6018D919C91119701968D939C93AE0132
:10056A00455F5F4FBE016F5F7F4FC4010E9409095B
:10057A00D7C0652D70E0970140E050E0CE010B96A0
:10058A000E94E606892B09F4CEC0F601808191818A
:10059A00019691838083AE01455F5F4FBE016F5F15
:1005AA007F4FC4010E940D08BBC0652D70E0970102
:1005BA0040E050E0CE010B960E94E606892B09F432
:1005CA00B2C0D601ED91FC911197CF0101968D939E
:1005DA009C9320811CC0970140E050E060EF70E0DE
:1005EA00CE010B960E94E606892B09F49CC0F601FF
:1005FA00808191810196918380838B859C85892B4B
:10060A0029F420E030E04DE953E084C028E7AE0148
:10061A00455F5F4FBE016F5F7F4FC4010E94A30316
:10062A007FC0A501400F511F652D70E09701CE01D3
:10063A000B960E940000892B09F475C0D6018D9192
:10064A009C91119701968D939C9373C0652D70E0D0
:10065A00A701CE010B960E940000892B09F463C002
:10066A00D601ED91FC911197CF0101968D939C9340
:10067A002081AE01455F5F4FBE016F5F7F4FC401AE
:10068A000E9400004DC0B0E85B124DC0F6018081A7
:10069A009181019691838083D701ED91FC91119705
:1006AA00CF0102968D939C93808120C0B0E85B12A3
:1006BA003AC0F60180819181019691838083D701A6
:1006CA00ED91FC911197CF0102968D939C934081F5
:1006DA00518120E030E01EC0B0E85B1224C0F60170
:1006EA00208131812F5F3F4F318320838B870DC05B
:1006FA0085E28B87D6016D927C921A8219821E82BC
:10070A001D828FEF9FEF9C838B8321E030E0AE0147
:10071A00455F5F4FBE016F5F7F4FC4010E94E00BD0
:10072A008A0D9B1D07C0F6018081918101969183F4
:0C073A008083C5012E96EFE00C94550D55
:10074600AFE0B0E0E9EAF3E00C941B0D1C016B018D
:100756005A8349832B83FB01828193818480958010
:1007660000811181A680B78097FD02C00D7F02C06F
:1007760081E090E0E981FA81408051806280738057
:100786009801207133273D832C83740104FF08C030
:10079600411451046104710419F032E0E31AF108BE
:1007A600F801E870FF27FF83EE8303FF03C0F1E043
:1007B600EF1AF108F6010084F185E02D3197FF87E5
:1007C600EE87EA0DFB1D10829C012E193F09398721
:1007D6002887C801827099279B878A87EB818E2F8D
:1007E600EE0F990B9C01215431093D872C872E85EC
:1007F6003F852230310530F48C819D81892B09F0AB
:1008060042C05CC0411451046104710461F18E85DB
:100816009F8501979F878E87C2018F7099278A309F
:10082600910514F4C09602C0895A9F4FEC85FD8548
:100836007A9748F49C012062215631092A31310504
:1008460010F40E94800EEE85FF85EA0DFB1D808365
:10085600F1E0EF1AF10884E0769467945794479490
:100866008A95D1F7C4CF888599858E0D9F1D181658
:1008760019066CF21E141F040CF0BECFEA85FB8528
:10088600EF2B29F6B9CFE981FA8180819181A28186
:10089600B381892B8A2B8B2B89F0EE85FF85EA0D98
:1008A600FB1D31972B8120838E859F8502979F871D
:1008B6008E87FC01EA0DFB1D80E38083EE81FF81BC
:1008C600EF2B59F02E853F85215031093F872E8722
:1008D600F901EA0DFB1D80E28083F6014085518512
:1008E600415051092E853F85421B530BB9016A0DB4
:1008F6007B1D9401C1010E94460A9C01F101808181
:10090600918190FF06C0F601828193818217930739
:0C0916000CF4C9012F96E2E10C94520D84
:10092200CF9342E068EE7DE080E00E947F0A219A48
:100932000E940C0E82E08093C6038091C6031F9230
:100942008F938CE491E09F938F930E94A00D7894F3
:100952008091C6030F900F900F900F90882361F043
:100962006FED7CE084ED93E00E94330C0E949E0EBA
:100972008091C0038823E1F381EC9EE00E94B00ED7
:100982000E94AA0E8FE791E00E94770E65EB7EE04F
:1009920084ED93E00E94330C0E949E0E1092BF03DE
:1009A2008091BF038823E1F38091C4030E9466080B
:1009B2008093C3038091C303882349F08AEA91E0BC
:1009C2000E94770E8091C3030E94B50B08C08FEC82
:1009D20091E00E94770E8091C3030E94B50B809133
:1009E200C3038111DBCF0E94A40E0E949109809360
:1009F200C2038091C203882359F082E092E00E94F0
:100A0200770E8091C2030E94B50B81E08093C103EF
:100A120061E081E00E94980E8093C2038091C2033C
:100A22008823B9F01F92C1E0CF931F92CF938CE23B
:100A320092E09F938F930E94A00D8091C2030E9427
:100A4200B50BC093C1030F900F900F900F900F90B2
:100A52000F9060E08EE592E00E94370D8093C20312
:100A62008091C203882359F080E792E00E94770EBA
:100A72008091C2030E94B50B81E08093C1038091F3
:100A8200C103811105C080EB92E00E94770E04C081
:100A920088EE92E00E94770E6AE27EE084ED93E0B7
:0C0AA2000E94330C0E949E0ECF9108951C
:100AAE00FF920F931F93CF93DF93C82F862F8F70D4
:100ABE0090E0009709F03AC0607F11F010E801C095
:100ACE0010E08091B1036091AF038B5F0E947B0CAD
:100ADE00811186C08CE30E944E0E811181C080E48C
:100AEE000E94870D81117CC08C2F90E08097EC01C5
:100AFE00CC0FDD1FCC0FDD1FC80FD91FC25CDE4F20
:100B0E0005E0FE018491812B0E94870D811168C042
:100B1E008091B1039091B20301969093B2038093AA
:100B2E00B103015021960111ECCF47C0019709F096
:100B3E0043C0607F11F010E801C010E08091B10356
:100B4E006091AF03865F0E947B0C811149C08CE3DC
:100B5E000E944E0E811144C080E40E94870D8111C7
:100B6E003FC08C2F90E08097EC01CC0FDD1FCC0F97
:100B7E00DD1FC80FD91FC25CDE4F0F2EF5E0FF2E12
:100B8E00F02DFE010491012B802F0E94870D811103
:100B9E0027C0802F0E94870D811122C08091B10342
:100BAE009091B20302969093B2038093B103FA949C
:100BBE002196F110E6CF01C010E0812F0E94870D23
:100BCE00C82F81110DC08091B1039091B20301968F
:100BDE009093B2038093B1030E94B90E8C2F00C084
:0C0BEE00DF91CF911F910F91FF900895AF
:100BFA000E949104CBE1D3E00F2EF7E9EF2EF3E048
:100C0A00FF2EF02D01E913E00F2EFEE1AF2EF3E0E7
:100C1A00BF2EF02D0F2EF1E3CF2EF3E0DF2EF02DB5
:100C2A008091C5038823E1F31092C50363E081E054
:100C3A000E94980E8093C2038091A3039091A4030B
:100C4A00A091A503B091A603BF93AF939F938F93EF
:100C5A00DF93CF93FF92EF920E94FA0D60E0C701F3
:100C6A000E94370D8093C20364E081E00E94980ECF
:100C7A008093C2038091AD039091AE039F938F93AB
:100C8A00DF93CF931F930F930E94FA0D60E0C80180
:100C9A000E94370D8093C2038091A3039091A4030D
:100CAA00A091A503B091A603BF93AF939F938F938F
:100CBA00BF92AF920E94A00D8091AD039091AE03B6
:100CCA009F938F93DF92CF920E94A00D8DB79EB70C
:0E0CDA0048960FB6F8949EBF0FBE8DBFA1CFF7
:100CE800A2E0B0E0EAE7F6E00C941B0D3C016B01D2
:100CF800FB0122813381A480B580808191819A8310
:100D0800898386809780FA012080318042805380D1
:100D1800B201A10157FE07C044275527BA0142195D
:100D280053096409750937FD03C08D7F9A83898348
:100D3800950157FC05C0898182FD02C083FF02C06E
:100D480021503109CE0101967C010AE010E0C6016C
:100D58000E944E0757FC03C0298122FF0AC0019751
:100D6800F401E80FF91F57FC02C02BE209C02DE27D
:100D780007C023FF06C00197F401E80FF91F20E21E
:100D8800208309811A81F601408551854150510916
:100D9800481B590BB401680F791F9501C3010E94C4
:100DA800460A9C01F3018081918190FF06C0F601FB
:100DB80082819381821793070CF4C9012296E2E19C
:040DC8000C94520D28
:100DCC00CF93DF93DC01F90168387105F1F05CF425
:100DDC006138710561F164387105A1F160387105F4
:100DEC0009F051C02FC0603C710509F441C0603F4F
:100DFC007105F1F1603A710509F045C0C081D181EE
:100E0C00CE0102969183808325C0C081D181CE0111
:100E1C00029691838083452B39F04881042E000C77
:100E2C00550B660B770B1CC0488150E029C0C08164
:100E3C00D181CE01049691838083488159816A8146
:100E4C007B810EC0C081D181CE01029691838083BB
:100E5C00452BA1F048815981052E000C660B770BB0
:100E6C004D935D936D937C93139781E090E00DC04F
:100E7C00C081D181CE0102969183808348815981B2
:100E8C0060E070E0EDCF80E090E0DF91CF910895CD
:100E9C00A0E0B0E0E4E5F7E00C941D0DDC012801C6
:100EAC001696AD90BC901797F701808191811296A0
:100EBC00ED91FC9113971896CD91DC911997219790
:100ECC00F7FF02C0E1E0F0E0CA0DDB1D18826901FA
:100EDC00A1E0B0E08F01021B130B4C01F2E08F225A
:100EEC009924052C000C66087708CE018A199B09F9
:100EFC00CA15DB0519F1411551056105710589F01C
:100F0C00CB01BA01A30192010E949D0CCA01A62F2C
:100F1C00B72F605D6A9341E0C41AD108A901BC01E6
:100F2C00E4CF98012C0D3D1D121613064CF31C1426
:100F3C001D0434F48114910419F702C080E090E090
:100F4C00AB2B31F4F701208131812F7E318320834B
:0A0F5C00CDB7DEB7E0E10C94540DB0
:100F66001F920F920FB60F9211242F933F934F9318
:100F76005F936F937F938F939F93AF93BF93EF93FB
:100F8600FF938091B5039091B60301969093B603B3
:100F96008093B5032091B7033091B8038217930766
:100FA60040F11092B6031092B5038091A703909179
:100FB600A803A091A903B091AA030196A11DB11D92
:100FC6008093A7039093A803A093A903B093AA03C1
:100FD60095B182E0892785B96091A7037091A8032E
:100FE6008091A9039091AA03E091B303F091B40311
:100FF6000995FF91EF91BF91AF919F918F917F914D
:101006006F915F914F913F912F910F900FBE0F906F
:041016001F9018957A
:10101A00A2E0B0E0E3E1F8E00C941F0D4C016B0193
:10102A00FB012281338164807580808191819A835A
:10103A008983A680B78037FD03C08D7F9A83898311
:10104A00FA014081518162817381CE0101967C014E
:10105A0008E010E09301C6010E944E07298124FF8F
:10106A0006C00197F501E80FF91F20E320832981C3
:10107A0023FF06C00197F501E80FF91F20E220833C
:10108A0009811A81F6014085518541505109481B51
:10109A00590BB501680F791F9301C4010E94460AD2
:1010AA009C01F4018081918190FF06C0F601828142
:1010BA009381821793070CF4C9012296EEE00C94EF
:0210CA00560DC1
:1010CC00CF92DF92EF92FF921F93CF93DF93C82FB3
:1010DC00EEE1F3E014910E94420E8C2F0E944E0E12
:1010EC00811135C084EE0E94360E811132C089EF19
:1010FC0090E00197F1F700C000000F2EFFE1CF2E1A
:10110C00F3E0DF2EF02D1EC0E6012196F60184914E
:10111C000E94360E81111FC0FE01E490F12CF2E00A
:10112C00EF0EF11CEC0CFD1C219607C0FE01849106
:10113C000E94360E2196811110C06E01CE15DF056E
:10114C00A9F711501111E0CF0E94B90E07C0182F4A
:10115C0005C0182F03C0182F01C0182F812FDF9145
:0E116C00CF911F91FF90EF90DF90CF900895EC
:10117A000F931F93CF93DF93DB01109719F48FEF2F
:10118A009FEF3DC02D913C91119730FF25C01696D7
:10119A004D915C91179714962D913C911597421792
:1011AA00530778F41296ED91FC9113978083129667
:1011BA002D913C9113972F5F3F4F13963C932E939B
:1011CA00129716962D913C9117972F5F3F4F1796BE
:1011DA003C932E93169713C01C96ED91FC911D9784
:1011EA00309769F2EB01092F182F0995892B39F6E7
:1011FA008E819F8101969F838E83812F902FDF910D
:08120A00CF911F910F9108958F
:10121200A2E0B0E0EFE0F9E00C941F0D5C016B017D
:10122200FB012281338184809580808191819A8320
:1012320089836680778037FD03C08D7F9A83898397
:10124200FA014081518162817381CE0101967C0154
:101252000AE010E09401C6010E944E0709811A813A
:10126200F6014085518541505109481B590BB30184
:10127200680F791F9401C5010E94460A9C01F5017D
:101282008081918190FF06C0F6018281938182174D
:0E12920093070CF4C9012296EEE00C94560D61
:1012A0000F931F93CF93DF93C82FD62F142F022FA6
:1012B0008CE30E944E0E81112FC081E20E94360EF7
:1012C00081112AC08C2F0E94360E811125C08D2FCE
:1012D0000E94360E811120C08C2F90E09093B203B3
:1012E0008093B10382E20E94360E811115C0812FD6
:1012F0000E94360E811110C0802F0E94360EC82F1A
:1013000081110AC0812F90E09093B0038093AF03C6
:101310000E94B90E8C2F00C0DF91CF911F910F91C9
:0213200008952E
:10132200CF93DF938CE30E944E0E811135C081E290
:101332000E94360E811130C00E94360E81112CC0DF
:101342008FE70E94360E811127C01092B2031092CD
:10135200B10382E20E94360E81111EC00E94360E37
:1013620081111AC087E00E94360E811115C01092B9
:10137200B0031092AF0380E40E94870D81110CC06C
:10138200C0E0D4E080E00E94870D811105C0219762
:0E139200C9F70E94B90E80E0DF91CF91089557
:1013A000A2E8B0E0E6EDF9E00C94210D5C014A0101
:1013B000CF57DF4F79836883C158D040C12CD12CDF
:1013C000CF57DF4FE881F981C158D0408081882311
:1013D000E9F07401860120E830E0AE014F5F5F4F15
:1013E000BE016F577F4FC5010E94A5018C0D9D1D49
:1013F0008C159D054CF48FE490E09093010180934F
:1014000000018FEF9FEF03C06C01DACFC601CE570A
:08141000DF4FECE00C94580DD5
:10141800A0E1B0E0E2E1FAE00C94270DFB01BA018B
:10142800AE014F5F5F4F7A0140E1D7011D924A95A7
:10143800E9F742E051E05A8349839C838B83F7FFA5
:1014480009C08FE490E090930101809300018FEF31
:101458009FEF14C0A9018C013197FE83ED83C7016A
:101468000E94D00D4F8158852D813E814217530728
:1014780008F49A01F801E20FF31F10826096E6E083
:041488000C945E0D55
:10148C00A0E0B0E0ECE4FAE00C94210D6C015B01FF
:10149C007A01E901480181E08822992400FD03C00A
:1014AC004217530750F0A701B501C6010E94FE0C6C
:1014BC00EC16FD0610F0C70117C08E010E191F099E
:1014CC000115110541F0B60180E290E00E94BD08C3
:1014DC0001501109F5CF8114910429F4A701B5012C
:1014EC00C6010E94FE0CCE01CDB7DEB7ECE00C9429
:0214FC00580D89
:1014FE00823090F5282F30E0F901EE0FFF1FEE0F2E
:10150E00FF1FEE57FC4F0190F081E02DE35CFE4093
:10151E0029F5882319F0813049F013C0E9E6F0E08F
:10152E0080818C7F482B4083E89A0BC0E9E6F0E07F
:10153E008081837F94E0499FA0011124482B408332
:10154E00E99A220F331F220F331FF901EE57FC4F7A
:10155E007183608381E0089580E0089580E00895AE
:10156E001F920F920FB60F9211242F933F934F930A
:10157E005F936F937F938F939F93AF93BF93EF93ED
:10158E00FF93A2E8B3E016968D919C911797019662
:10159E0017969C938E9316971496ED91FC91159732
:1015AE0016968D919C9117970995FF91EF91BF918A
:1015BE00AF919F918F917F916F915F914F913F91DD
:0C15CE002F910F900FBE0F901F901895EA
:1015DA001F920F920FB60F9211242F933F934F939E
:1015EA005F936F937F938F939F93AF93BF93EF9381
:1015FA00FF93A2E8B3E012968D919C9113970196FE
:10160A0013969C938E931297ED91FC9111971296D3
:10161A008D919C9113970995FF91EF91BF91AF918D
:10162A009F918F917F916F915F914F913F912F91F0
:0A163A000F900FBE0F901F9018953F
:101644001F920F920FB60F9211241F932F933F9363
:101654004F935F936F937F938F939F93AF93BF93B6
:10166400CF93DF93EF93FF93C6ECD0E01881E09122
:10167400B903F091BA03812F099518837894FF91E7
:10168400EF91DF91CF91BF91AF919F918F917F9116
:101694006F915F914F913F912F911F910F900FBECA
:0616A4000F901F90189545
:1016AA000F931F93CF93DF938C010F5F1F4FFC01A2
:1016BA0080816115710519F48FEF9FEF1EC0FB0140
:1016CA0024853585232BC1F3EB01EC85FD85BE010D
:1016DA00882339F00995892B79F7F80181918F01CF
:1016EA00F4CF8AE0099521E030E0892B11F420E05B
:1016FA0030E088279927821B930BDF91CF911F91A6
:04170A000F9108959E
:10170E00DC01ED91FC91119780818A3221F080E00D
:10171E0090E03AE00EC03196ED93FC93DB01ED9133
:10172E00FC911197CF0102968D939C9380819181AC
:10173E000895ED91FC911197208120532A3068F481
:10174E00389FA001399F500D1124CA01820F911D9F
:0C175E0031961196FC93EE93ECCF0895A9
:10176A000F931F93CF93DF9300D000D0CDB7DEB78E
:10177A001F928F9384E391E09F938F938E010F5F63
:10178A001F4F1F930F930E94FA0D1F930F9389E324
:10179A0091E09F938F930E94A00D0FB6F894DEBF3D
:1017AA000FBECDBF0F900F900F900F90DF91CF918A
:0617BA001F910F9108953C
:1017C000A0E0B0E0E6EEFBE00C94230D7C01FB0111
:1017D000EA01C901A280B380C480D5800081118153
:1017E000209711F4CAE8D3E0009719F4CE010E94C3
:1017F0001C0EB7FC04C0A816B90608F4C501960172
:10180000AC01BE01C7010E94460ACDB7DEB7EAE0CF
:041810000C945A0DCD
:101814008130910581F08830910581F08034910503
:1018240081F0811521E0920779F081159440B9F493
:1018340084E090E00BC080E090E008C081E090E09C
:1018440005C082E090E002C083E090E0880F991F19
:10185400880F991FFC01E25AFC4F8281089581E0B0
:021864000895E5
:101866000F931F93CF93DF938C01EB0116BC14BC2F
:1018760015BA80E490E00E940A0C95B5892B85BDC7
:101886001093B8030093B7031092A7031092A8030E
:101896001092A9031092AA03D093B403C093B30382
:0A18A600DF91CF911F910F9108957B
:1018B000E9EBF0E080818775808385EA8093BC0046
:1018C0008FEF91E0ECEBF0E02081222314F0019700
:1018D000D9F78091B900887F883049F08091B900AC
:1018E000887F803131F08091B900887F089580E051
:0618F000089580E0089558
:1018F600CF938823E4F4C62F6730A0F482E090E00B
:101906009093B2038093B1036091AF037091B003DB
:101916006F5F7F4F7093B0036093AF030E94980E82
:10192600811106C081E0C73018F480E001C080E074
:04193600CF910895B0
:10193A00A1E21A2EAA1BBB1BFD010DC0AA1FBB1FC9
:10194A00EE1FFF1FA217B307E407F50720F0A21B3B
:10195A00B30BE40BF50B661F771F881F991F1A94A8
:10196A0069F760957095809590959B01AC01BD01D2
:04197A00CF010895FC
:10197E00CF93DF93EC0190E0E92FF0E0EE0FFF1F25
:10198E00E85BFC4F8081811102C081810EC0A8816D
:10199E00B9812C91821305C091811196B983A883C8
:1019AE0001C09F5F9B3040F3892FDF91CF91089547
:1019BE008091C60381508093C6038091C603811126
:1019CE0007C00E94A40E299881E08093C003089559
:1019DE008091C6031F928F9382E091E09F938F9325
:0E19EE000E94B80D0F900F900F900F9008956B
:1019FC00A0E0B0E0E4E0FDE00C94250D6C01EB01FF
:101A0C008A017B01E40EF51ECE15DF0541F08991AC
:101A1C00B601082E000C990B0E94BD08F5CFC80129
:0A1A2C00CDB7DEB7E8E00C945C0DC6
:101A36002F923F924F925F926F927F928F929F92D8
:101A4600AF92BF92CF92DF92EF92FF920F931F93C6
:101A5600CF93DF93CDB7DEB7CA1BDB0B0FB6F89477
:081A6600DEBF0FBECDBF0994E5
:101A6E000F931F93CF93DF93FC018081882369F03E
:101A7E00D62F8F01C0E0CF5F6D2F0E945705F80162
:101A8E00EC0FF11D80818111F6CF80E0DF91CF91B7
:061A9E001F910F91089555
:101AA4002A88398848885F846E847D848C849B84EA
:101AB400AA84B984C884DF80EE80FD800C811B81F8
:101AC400AA81B981CE0FD11D0FB6F894DEBF0FBE27
:061AD400CDBFED010895F5
:101ADA00880F8093BB0084E88093BC008FEF91E06D
:101AEA00ECEBF0E02081222314F00197D9F78091E2
:101AFA00B900887F883121F08091B900887F0895E4
:041B0A0080E00895DA
:101B0E008093BB0084E88093BC008FEF91E0ECEBF8
:101B1E00F0E02081222314F00197D9F78091B900CB
:101B2E00887F883221F08091B900887F089580E007
:021B3E00089508
:101B4000A0E0B0E0E6EAFDE00C942B0DAE014B5FA7
:101B50005F4FFA0161917191AF01E091BB03F09188
:101B6000BC03808191810E94D00DE2E00C94620D53
:101B7000A0E0B0E0EEEBFDE00C942B0DAE014B5F6E
:101B80005F4FFA0161917191AF01E091BB03F09158
:101B9000BC03808191810E94D00DE2E00C94620D23
:101BA000A2E0B0E0E6EDFDE00C94290D8C015A8333
:101BB0004983AE014F5F5F4F0E94D009F801208139
:101BC00024FF02C08FEF9FEF2296E4E00C94600D9B
:101BD0002091AD033091AE032F5F3F4F3093AE03A2
:101BE0002093AD039093AC038093AB0381E080938B
:041BF000C50308958C
:101BF400A0E0B0E0E0E0FEE00C942B0DAE01475F06
:101C04005F4F6F8178858D819E810E94910EE2E005
:041C14000C94620DBD
:101C180087E68093C4001092C5001092C00088E146
:101C28008093C10086E08093C2000E946E0E0895E2
:101C3800FC01AF014F5F5F4F2081222311F0FA01B1
:0C1C4800F8CF9F01281B390BC90108953B
:101C54006093A3037093A4038093A5039093A603B6
:081C640081E08093C50308959F
:101C6C00CF93C82F80E80E94870D811103C08C2F61
:081C7C000E94870DCF9108952D
:101C840082E08093B800E9EBF0E08081908182707B
:081C94008160892B8083089513
:101C9C00CF93C82F0E94580C811103C08C2F0E9427
:061CAC006D0DCF910895BB
:101CB200EC010E94C50E0E94C40ECE010E94C60E07
:061CC200CE010E94BF0EDE
:101CC800E0ECF0E0908195FFFDCF8093C60080E0C6
:041CD80090E00895FB
:101CDC00E091BB03F091BC0382E793E09183808396
:021CEC00089559
:101CEE00E091BB03F091BC03608171810E94550BA2
:021CFE00089547
:101D00009C01215631092A31310510F48F7599272C
:021D1000089534
:101D12009C01215431092A31310508F48062089569
:0E1D22009A01AB016FEF7FE70E940C0A089553
:0C1D3000462F27E06FE70E94500908953D
:0C1D3C00EEE6F0E0808181608083089575
:0C1D4800EEE6F0E080818E7F808308953D
:0C1D5400E1ECF0E080818068808308955D
:0A1D60009093BA038093B90308952D
:081D6A0081E08093BF0308959E
:081D720084E98093BC00089590
:041D7A000C940000C5
:041D7E000E949D0022
:021D82000895C2
:021D84001895B0
:021D86000895BE
:021D88000895BC
:021D8A000895BA
:021D8C000895B8
:101D8E0025642073656B756E6465722074696C6270
:101D9E006167652074696C2041646166727569744F
:101DAE0020446973706C6179204F70737461727422
:101DBE000A003078257800446973706C617920438D
:101DCE006F6465203A2025730A000A56656E7465A5
:101DDE007220692025642073656B756E64657220B0
:101DEE0070E5204164616672756974204469737090
:101DFE006C6179204F7073746172740A000A0A4E16
:101E0E00752073746172746572207669206D6564D5
:101E1E0020617420746573746520446973706C61FD
:101E2E007965742021212100446973706C617920D9
:101E3E004E4F542070726F7065726C7920696E69A6
:101E4E007469616C697A656420212121004469738B
:101E5E00706C61792070726F7065726C7920696E2A
:101E6E00697469616C697A6564206920446973706C
:101E7E006C617954657374436F6465202121210070
:101E8E0046656A6C207665642066756E6B74696F44
:101E9E006E656E203A20535344313330365F436CB7
:101EAE0065617253637265656E0046656A6C207675
:101EBE0065642066756E6B74696F6E656E203A2070
:101ECE00535344313330365F536574506F736974B6
:101EDE00696F6E2825642C2564290A0068347064A5
:101EEE003031313132352073747972657200466546
:101EFE006A6C207665642066756E6B74696F6E65AC
:101F0E006E203A20535344313330365F447261773A
:101F1E00537472696E67282757616974696E6720FA
:101F2E00212121272C204E4F524D414C290044692E
:101F3E0073706C61792070726F7065726C79206944
:101F4E006E697469616C697A6564206F6720696E69
:101F5E0067656E2066656A6C206865726566746575
:101F6E00722021212100446973706C617920707296
:101F7E006F7065726C7920696E697469616C697ACB
:101F8E006564206D656E2066656A6C206865726595
:101F9E0066746572202121210025640054696D65E7
:101FAE0072436F756E746572203A2025640A00497B
:101FBE006E74657272757074436F756E746572208F
:061FCE003A2025730A0011
:101FD40068076C094C836A9074A07AC00080688892
:061FE40000846C82008104
:101FEA000100010008000200400003000001040093
:041FFA0000040500DA
:101FFE00030000000000000000000000640E00005E
:08200E00C30E0000C30E000028
:07201600286E756C6C2900B7
:06201D00286E696C290029
:02202300BD03FB
:012025003C7E
:00000001FF
