:100000000C946F000C94E7090C94230A0C949F0D38
:100010000C949F0D0C949F0D0C949F0D0C949F0DB0
:100020000C949F0D0C949F0D0C949F0D0C949F0DA0
:100030000C949F0D0C949F0D0C949F0D0C949F0D90
:100040000C949C060C949F0D0C94AA090C949F0D83
:100050000C949F0D0C949F0D0C949F0D0C949F0D70
:100060000C94430D0C949F0D0C949F0D0C949F0DBC
:100070000C949F0D0C949F0D0C949F0D0C949F0D50
:100080000C949F0D0C949F0D0C949F0D0C949F0D40
:100090000C949F0D0C949F0D0C949F0D0C949F0D30
:1000A0000C949F0D0C949F0D0C949F0D0C949F0D20
:1000B0000C949F0D01000102800102036D001B4C96
:1000C000036D0379800379037F001DB7037F0395D8
:1000D0008003950397001DBD0397039B80001124A7
:1000E0001FBECFEFD8E0DEBFCDBFE4EBF0E040E0D5
:1000F00017C0B591A59135912591059107FD0CC0CB
:1001000095918591EF01F92FE82F05900D92A21797
:10011000B307D9F7FE0104C01D92A217B307E1F798
:10012000ED3DF40731F70E948F050C947C0DF89497
:02013000FFCFFF
:10013200000000000081811881810007000700147F
:100142007F147F14242A7F2A1223130864623649FB
:100152005522500005030000001C224100004122EC
:100162001C0014083E081408083E0808005030001D
:100172000008080808080060600000201008040257
:100182003E5149453E00427F40004261514946216D
:1001920041454B311814127F1027454545393C4AD9
:1001A2004949300171090503364949493606494929
:1001B200291E00363600000056360000081422417F
:1001C20000141414141400412214080201510906E7
:1001D200324979413E7E1111117E7F494949363EAD
:1001E200414141227F4141221C7F494949417F09C6
:1001F2000909013E4149497A7F0808087F00417F89
:1002020041002040413F017F081422417F4040408D
:10021200407F020C027F7F0408107F3E4141413E35
:100222007F090909063E4151215E7F091929464687
:100232004949493101017F01013F4040403F1F20B0
:1002420040201F3F4038403F631408146307087082
:1002520008076151494543007F41410002040810EB
:10026200200041417F00040201020440404040401E
:10027200000102040020545454787F484444383822
:1002820044444420384444487F3854545418087E27
:100292000901020C5252523E7F0804047800447D48
:1002A20040002040443D007F1028440000417F4030
:1002B200007C041804787C080404783844444438E8
:1002C2007C14141408081414147C7C0804040848D0
:1002D20054545420043F4440203C4040207C1C2085
:1002E20040201C3C4030403C44281028440C5050D4
:1002F200503C4464544C44000836410000007F00E6
:100302000000413608001008081008000000000034
:10031200AEE0B0E0EFE8F1E00C94CD0C4C016B01E3
:100322001A8219828FEF9FEF9C838B831E821D821C
:1003320058874F833A872987A12CB12CD6016D901B
:100342007C90F301EA0DFB1D808181110FC0D60163
:10035200ED93FC938081853209F0D3C13F01BFEF59
:100362006B1A7B0AF6017182608219C0853279F3B9
:10037200B401082E000C990B0E9495084FEFA41AA5
:10038200B40ADCCF8C32ACF08D32F9F489819A81D7
:1003920081609A8389833196D601ED93FC93D601CD
:1003A200ED91FC9180818B3269F789819A81846019
:1003B200F0CF803221F489819A818860EACF83323A
:1003C20051F489819A818061E4CF803321F489815B
:1003D2009A818260DECFB701C6010E94830B9E83A1
:1003E2008D8397FF0BC029813A81B1E02B273A8395
:1003F20029839195819591099E838D8389819A8123
:1004020080FF03C08D7F9A838983D601ED91FC9191
:10041200119780818E3249F43196ED93FC93B701A6
:10042200C6010E94830B9C838B83C6010E946E0CC3
:10043200582ED601ED91FC918081082E000C990B6B
:100442000E94900D893609F443C084F4833609F47E
:1004520002C134F4853209F427C18136E1F030C19A
:100462008436B1F188360CF4D9C02AC1803709F438
:100472009AC03CF48E3609F4BCC08F3609F461C0D0
:100482001FC1853709F440C0883709F476C0833725
:1004920009F016C1F3C0652D70E0A701CE010B96DD
:1004A2000E940000892B09F426C1D601ED91FC912E
:1004B2001197CF0101968D939C932081AE01455FE8
:1004C2005F4FBE016F5F7F4FC4010E94000010C1E9
:1004D200652D70E0970141E050E0CE010B960E943D
:1004E2000A07892B09F407C1F601808191810196DF
:1004F20091838083AE01455F5F4FBE016F5F7F4F87
:10050200C4010E942A06F4C0652D70E0970140E004
:1005120050E0CE010B960E940A07892B09F4EBC02A
:10052200D6018D919C91119701968D939C93AE016A
:10053200455F5F4FBE016F5F7F4FC4010E94E108BC
:10054200D7C0652D70E0970140E050E0CE010B96D8
:100552000E940A07892B09F4CEC0F601808191819D
:10056200019691838083AE01455F5F4FBE016F5F4D
:100572007F4FC4010E943C08BBC0652D70E097010B
:1005820040E050E0CE010B960E940A07892B09F445
:10059200B2C0D601ED91FC911197CF0101968D93D6
:1005A2009C9320811CC0970140E050E060EF70E016
:1005B200CE010B960E940A07892B09F49CC0F60112
:1005C200808191810196918380838B859C85892B83
:1005D20029F420E030E049E753E084C028E7AE0187
:1005E200455F5F4FBE016F5F7F4FC4010E94A10450
:1005F2007FC0A501400F511F652D70E09701CE010C
:100602000B960E940000892B09F475C0D6018D91CA
:100612009C91119701968D939C9373C0652D70E008
:10062200A701CE010B960E940000892B09F463C03A
:10063200D601ED91FC911197CF0101968D939C9378
:100642002081AE01455F5F4FBE016F5F7F4FC401E6
:100652000E9400004DC0B0E85B124DC0F6018081DF
:100662009181019691838083D701ED91FC9111973D
:10067200CF0102968D939C93808120C0B0E85B12DB
:100682003AC0F60180819181019691838083D701DE
:10069200ED91FC911197CF0102968D939C9340812D
:1006A200518120E030E01EC0B0E85B1224C0F601A8
:1006B200208131812F5F3F4F318320838B870DC093
:1006C20085E28B87D6016D927C921A8219821E82F4
:1006D2001D828FEF9FEF9C838B8321E030E0AE0180
:1006E200455F5F4FBE016F5F7F4FC4010E94DE0B0B
:1006F2008A0D9B1D07C0F60180819181019691832D
:0C0702008083C5012E96EFE00C94E90CFA
:10070E00CF93DF93CDB7DEB72E970FB6F894DEBF3B
:10071E000FBECDBF8D876E878FEF8B8319821A82A6
:10072E008E85882F90E08F709927892B09F068C0ED
:10073E008E85882F90E0807F9927892B11F080E895
:10074E008A838091890390918A038B5F8C83809139
:10075E008B0390918C038D836D818C810E946D092A
:10076E008B838B81882311F08B81DBC08CE30E94FD
:10077E008E0C8B838B81882311F08B81D2C080E409
:10078E000E94D60A8B838B818823B1F18B81C9C0DD
:10079E008D85882F90E09C0120523109898191E04E
:1007AE00980F9983482F50E0C901880F991F880F21
:1007BE00991F820F931F840F951F8E5C9E4F9F83F0
:1007CE008E838E819F81FC0184918887888589879D
:1007DE0099858A81892B0E94D60A8B838B818823E7
:1007EE0011F08B819EC08091890390918A030196AE
:1007FE0090938A03809389038981853048F27CC067
:10080E008E85882F90E08F709927019709F074C01C
:10081E008E85882F90E0807F9927892B11F080E8B4
:10082E008A838091890390918A03865F8C8380915D
:10083E008B0390918C038D836D818C810E946D0949
:10084E008B838B81882311F08B816BC08CE30E948C
:10085E008E0C8B838B81882311F08B8162C080E498
:10086E000E94D60A8B838B81882309F441C08B8129
:10087E0058C08D85882F90E09C01205231098981C6
:10088E0091E0980F9983482F50E0C901880F991F66
:10089E00880F991F820F931F840F951F8E5C9E4F9A
:1008AE009B878A878A859B85FC0184918C878C85A2
:1008BE00898799858A81892B0E94D60A8B838B81A1
:1008CE00882311F08B812DC099858A81892B0E94F6
:1008DE00D60A8B838B81882311F08B8122C0809165
:1008EE00890390918A03029690938A0380938903D9
:1008FE008981853008F4BDCF8A810E94D60A8B8308
:10090E008B81882311F08B810CC08091890390918B
:10091E008A03019690938A03809389030E94620D45
:10092E0080E02E960FB6F894DEBF0FBECDBFDF91DE
:04093E00CF910895B8
:10094200AFE0B0E0E7EAF4E00C94CA0C1C016B01E2
:100952005A8349832B83FB01828193818480958012
:1009620000811181A680B78097FD02C00D7F02C071
:1009720081E090E0E981FA81408051806280738059
:100982009801207133273D832C83740104FF08C032
:10099200411451046104710419F032E0E31AF108C0
:1009A200F801E870FF27FF83EE8303FF03C0F1E045
:1009B200EF1AF108F6010084F185E02D3197FF87E7
:1009C200EE87EA0DFB1D10829C012E193F09398723
:1009D2002887C801827099279B878A87EB818E2F8F
:1009E200EE0F990B9C01215431093D872C872E85EE
:1009F2003F852230310530F48C819D81892B09F0AD
:100A020042C05CC0411451046104710461F18E85DD
:100A12009F8501979F878E87C2018F7099278A30A1
:100A2200910514F4C09602C0895A9F4FEC85FD854A
:100A32007A9748F49C012062215631092A31310506
:100A420010F40E94870DEE85FF85EA0DFB1D808361
:100A5200F1E0EF1AF10884E0769467945794479492
:100A62008A95D1F7C4CF888599858E0D9F1D18165A
:100A720019066CF21E141F040CF0BECFEA85FB852A
:100A8200EF2B29F6B9CFE981FA8180819181A28188
:100A9200B381892B8A2B8B2B89F0EE85FF85EA0D9A
:100AA200FB1D31972B8120838E859F8502979F871F
:100AB2008E87FC01EA0DFB1D80E38083EE81FF81BE
:100AC200EF2B59F02E853F85215031093F872E8724
:100AD200F901EA0DFB1D80E28083F6014085518514
:100AE200415051092E853F85421B530BB9016A0DB6
:100AF2007B1D9401C1010E944A0B9C01F10180817E
:100B0200918190FF06C0F60182819381821793073B
:0C0B12000CF4C9012F96E2E10C94E60CF3
:100B1E00CF93DF93CDB7DEB7809199038823E1F3AE
:100B2E001092990363E081E00E94080C80939A036F
:100B3E0080917F0390918003A0918103B0918203F5
:100B4E002B2F2F932A2F2F93292F2F938F938BE1B8
:100B5E0093E0892F8F938BE193E08F938DE693E053
:100B6E00892F8F938DE693E08F930E94310D8DB771
:100B7E009EB708960FB6F894DEBF0FBECDBF60E0ED
:100B8E008DE693E00E94B10B80939A0364E081E0BE
:100B9E000E94080C80939A0380918703909188039A
:100BAE00292F2F938F938BE193E0892F8F938BE1D6
:100BBE0093E08F9383E793E0892F8F9383E793E0FE
:100BCE008F930E94310D0F900F900F900F900F90FA
:100BDE000F9060E083E793E00E94B10B80939A033D
:100BEE0080917F0390918003A0918103B091820345
:100BFE002B2F2F932A2F2F93292F2F938F938EE105
:100C0E0093E0892F8F938EE193E08F930E94010DD5
:100C1E000F900F900F900F900F900F908091870371
:100C2E0090918803292F2F938F9381E393E0892F3F
:100C3E008F9381E393E08F930E94010D0F900F909D
:060C4E000F900F9069CF2A
:100C5400A2E0B0E0E0E3F6E00C94CA0C3C016B01C6
:100C6400FB0122813381A480B580808191819A83A4
:100C7400898386809780FA01208031804280538066
:100C8400B201A10157FE07C044275527BA014219F2
:100C940053096409750937FD03C08D7F9A838983DD
:100CA400950157FC05C0898182FD02C083FF02C003
:100CB40021503109CE0101967C010AE010E0C60101
:100CC4000E94D70757FC03C0298122FF0AC001975D
:100CD400F401E80FF91F57FC02C02BE209C02DE212
:100CE40007C023FF06C00197F401E80FF91F20E2B3
:100CF400208309811A81F6014085518541505109AB
:100D0400481B590BB401680F791F9501C3010E9458
:100D14004A0B9C01F3018081918190FF06C0F6018A
:100D240082819381821793070CF4C9012296E2E130
:040D34000C94E60C29
:100D38001F920F920FB60F9211242F933F934F9348
:100D48005F936F937F938F939F93AF93BF93EF932B
:100D5800FF93CF93DF93CDB7DEB780918F03909148
:100D6800900301969093900380938F0320918F03B3
:100D78003091900380918D0390918E032817390745
:100D880088F11092900310928F03809183039091C1
:100D98008403A0918503B09186030196A11DB11D1E
:100DA8008093830390938403A0938503B093860371
:100DB80085E290E025E230E0F901308122E0232746
:100DC800FC01208320919103309192038091830349
:100DD80090918403A0918503B0918603BC01CD0155
:100DE800F90109950000DF91CF91FF91EF91BF9133
:100DF800AF919F918F917F916F915F914F913F91AB
:0C0E08002F910F900FBE0F901F901895B7
:100E1400CF93DF93DC01F90168387105F1F05CF4DC
:100E24006138710561F164387105A1F160387105AB
:100E340009F051C02FC0603C710509F441C0603F06
:100E44007105F1F1603A710509F045C0C081D181A5
:100E5400CE0102969183808325C0C081D181CE01C9
:100E6400029691838083452B39F04881042E000C2F
:100E7400550B660B770B1CC0488150E029C0C0811C
:100E8400D181CE01049691838083488159816A81FE
:100E94007B810EC0C081D181CE0102969183808373
:100EA400452BA1F048815981052E000C660B770B68
:100EB4004D935D936D937C93139781E090E00DC007
:100EC400C081D181CE01029691838083488159816A
:100ED40060E070E0EDCF80E090E0DF91CF91089585
:100EE400CF93DF9300D000D00F92CDB7DEB78A83C3
:100EF4006B834C832D838FEF89838CE30E948E0C4C
:100F040089838981882311F0898147C081E20E9405
:100F14004E0C89838981882311F089813EC08A819E
:100F24000E944E0C89838981882311F0898135C000
:100F34008B810E944E0C89838981882311F08981D9
:100F44002CC08A81882F90E090938A038093890330
:100F540082E20E944E0C89838981882311F0898161
:100F64001CC08C810E944E0C89838981882311F0D6
:100F7400898113C08D810E944E0C898389818823C5
:100F840011F089810AC08C81882F90E090938C03A2
:100F940080938B030E94620D80E00F900F900F905E
:0A0FA4000F900F90DF91CF91089598
:100FAE00A0E0B0E0EDEDF7E00C94CC0CDC012801F4
:100FBE001696AD90BC901797F7018081918112968D
:100FCE00ED91FC9113971896CD91DC91199721977D
:100FDE00F7FF02C0E1E0F0E0CA0DDB1D18826901E7
:100FEE00A1E0B0E08F01021B130B4C01F2E08F2247
:100FFE009924052C000C66087708CE018A199B09E6
:10100E00CA15DB0519F1411551056105710589F008
:10101E00CB01BA01A30192010E942C0CCA01A62F8A
:10102E00B72F605D6A9341E0C41AD108A901BC01D3
:10103E00E4CF98012C0D3D1D121613064CF31C1413
:10104E001D0434F48114910419F702C080E090E07D
:10105E00AB2B31F4F701208131812F7E3183208338
:0A106E00CDB7DEB7E0E10C94E80C0A
:10107800A2E0B0E0E2E4F8E00C94CE0C4C016B0185
:10108800FB012281338164807580808191819A83FC
:101098008983A680B78037FD03C08D7F9A838983B3
:1010A800FA014081518162817381CE0101967C01F0
:1010B80008E010E09301C6010E94D707298124FFA8
:1010C80006C00197F501E80FF91F20E32083298165
:1010D80023FF06C00197F501E80FF91F20E22083DE
:1010E80009811A81F6014085518541505109481BF3
:1010F800590BB501680F791F9301C4010E944A0B6F
:101108009C01F4018081918190FF06C0F6018281E3
:101118009381821793070CF4C9012296EEE00C9490
:02112800EA0CCF
:10112A000F931F93CF93DF93DB01109719F48FEF7F
:10113A009FEF3DC02D913C91119730FF25C0169627
:10114A004D915C91179714962D913C9115974217E2
:10115A00530778F41296ED91FC91139780831296B7
:10116A002D913C9113972F5F3F4F13963C932E93EB
:10117A00129716962D913C9117972F5F3F4F17960E
:10118A003C932E93169713C01C96ED91FC911D97D4
:10119A00309769F2EB01092F182F0995892B39F637
:1011AA008E819F8101969F838E83812F902FDF915D
:0811BA00CF911F910F910895E0
:1011C200A2E0B0E0E7EEF8E00C94CE0C5C016B011B
:1011D200FB012281338184809580808191819A8371
:1011E20089836680778037FD03C08D7F9A838983E8
:1011F200FA014081518162817381CE0101967C01A5
:101202000AE010E09401C6010E94D70709811A8101
:10121200F6014085518541505109481B590BB301D4
:10122200680F791F9401C5010E944A0B9C01F501C8
:101232008081918190FF06C0F6018281938182179D
:0E12420093070CF4C9012296EEE00C94EA0C1E
:10125000CF93DF9300D0CDB7DEB789EB90E029EBD9
:1012600030E0F90120812775FC0120838CEB90E0B0
:1012700025EAFC0120831A82198289819A810196CC
:101280009A8389838CEB90E0FC01808188232CF089
:1012900089819A818F3F914080F389EB90E0FC0136
:1012A0008081882F90E0887F9927089781F089EBCB
:1012B00090E0FC018081882F90E0887F99274097FB
:1012C00031F089EB90E0FC018081887F01C080E0F3
:0A12D0000F900F90DF91CF91089569
:1012DA00CF93DF9300D00F92CDB7DEB78A836B83AB
:1012EA008FEF89838A8188234CF58B81873008F5B3
:1012FA0082E090E090938A038093890380918B0324
:10130A0090918C03019690938C0380938B03809128
:10131A008B0390918C03282F8091890390918A03E3
:10132A00622F0E94080C89838981882311F08981A0
:10133A0006C08B81873010F081E001C080E00F90F9
:0A134A000F900F90DF91CF910895EE
:101354001F920F920FB60F9211242F933F934F9326
:101364005F936F937F938F939F93AF93BF93EF9309
:10137400FF93CF93DF930F92CDB7DEB786EC90E067
:10138400FC018081898320919303309194038981A6
:10139400F901099586EC90E02981FC012083789479
:1013A40000000F90DF91CF91FF91EF91BF91AF912A
:1013B4009F918F917F916F915F914F913F912F9169
:0A13C4000F900FBE0F901F901895B8
:1013CE001F920F920FB60F9211242F933F934F93AC
:1013DE005F936F937F938F939F93AF93BF93EF938F
:1013EE00FF93CF93DF93CDB7DEB7809160039091DB
:1013FE0061030196909361038093600320915E03D5
:10140E0030915F038091600390916103F90109951A
:10141E000000DF91CF91FF91EF91BF91AF919F911E
:10142E008F917F916F915F914F913F912F910F907F
:08143E000FBE0F901F901895DE
:101446001F920F920FB60F9211242F933F934F9333
:101456005F936F937F938F939F93AF93BF93EF9316
:10146600FF93CF93DF93CDB7DEB78091640390915E
:10147600650301969093650380936403209162034C
:10148600309163038091640390916503F901099596
:101496000000DF91CF91FF91EF91BF91AF919F91A6
:1014A6008F917F916F915F914F913F912F910F9007
:0814B6000FBE0F901F90189566
:1014BE00A2E8B0E0E5E6FAE00C94D00C5C014A013B
:1014CE00CF57DF4F79836883C158D040C12CD12CC0
:1014DE00CF57DF4FE881F981C158D04080818823F2
:1014EE00E9F07401860120E830E0AE014F5F5F4FF6
:1014FE00BE016F577F4FC5010E9489018C0D9D1D46
:10150E008C159D054CF48FE490E09093010180932F
:10151E0000018FEF9FEF03C06C01DACFC601CE57EB
:08152E00DF4FECE00C94EC0C23
:10153600CF93DF9300D00F92CDB7DEB78B838BEBC3
:1015460090E02B81220FFC0120838CEB90E024E8B5
:10155600FC0120831A82198289819A8101969A83D5
:1015660089838CEB90E0FC01808188232CF08981B3
:101576009A818F3F914080F389EB90E0FC01808156
:10158600882F90E0887F9927489731F089EB90E083
:10159600FC018081887F01C080E00F900F900F9042
:0615A600DF91CF910895D2
:1015AC00CF93DF9300D00F92CDB7DEB78B838BEB4D
:1015BC0090E02B81FC0120838CEB90E024E8FC0173
:1015CC0020831A82198289819A8101969A83898350
:1015DC008CEB90E0FC01808188232CF089819A812E
:1015EC008F3F914080F389EB90E0FC018081882F44
:1015FC0090E0887F9927889731F089EB90E0FC0187
:10160C008081887F01C080E00F900F900F90DF9158
:04161C00CF910895CD
:10162000A0E1B0E0E6E1FBE00C94D60CFB01BA01CE
:10163000AE014F5F5F4F7A0140E1D7011D924A959D
:10164000E9F742E051E05A8349839C838B83F7FF9B
:1016500009C08FE490E090930101809300018FEF27
:101660009FEF14C0A9018C013197FE83ED83C70160
:101670000E94190D4F8158852D813E8142175307D5
:1016800008F49A01F801E20FF31F10826096E6E079
:041690000C94F20CB8
:10169400A0E0B0E0E0E5FBE00C94D00C6C015B0151
:1016A4007A01E901480181E08822992400FD03C000
:1016B4004217530750F0A701B501C6010E94AD0CB3
:1016C400EC16FD0610F0C70117C08E010E191F0994
:1016D4000115110541F0B60180E290E00E949508E1
:1016E40001501109F5CF8114910429F4A701B50122
:1016F400C6010E94AD0CCE01CDB7DEB7ECE00C9470
:02170400EC0CEB
:10170600DC01ED91FC91119780818A3221F080E015
:1017160090E03AE00EC03196ED93FC93DB01ED913B
:10172600FC911197CF0102968D939C9380819181B4
:101736000895ED91FC911197208120532A3068F489
:10174600389FA001399F500D1124CA01820F911DA7
:0C17560031961196FC93EE93ECCF0895B1
:10176200CF93DF9300D000D0CDB7DEB79B838A83BF
:101772006C8319820FC0898191E0980F9983882F19
:1017820090E02A813B81820F931FFC0180816C8152
:101792000E9487038981882F90E02A813B81820FF2
:1017A200931FFC018081882331F780E00F900F9016
:0A17B2000F900F90DF91CF91089582
:1017BC00A0E0B0E0E4EEFBE00C94D20C7C01FB0169
:1017CC00EA01C901A280B380C480D5800081118157
:1017DC00209711F4C6E6D3E0009719F4CE010E94CD
:1017EC00540DB7FC04C0A816B90608F4C50196013F
:1017FC00AC01BE01C7010E944A0BCDB7DEB7EAE0CF
:04180C000C94EE0C3E
:10181000CF93DF9300D000D00F92CDB7DEB78C838B
:101820006D838FEF89838FE78A8387E08B832B819A
:101830004D816A818C810E94720789838981882306
:1018400011F0898101C080E00F900F900F900F90F0
:081850000F90DF91CF91089584
:10185800A1E21A2EAA1BBB1BFD010DC0AA1FBB1FAC
:10186800EE1FFF1FA217B307E407F50720F0A21B1E
:10187800B30BE40BF50B661F771F881F991F1A948B
:1018880069F760957095809590959B01AC01BD01B5
:04189800CF010895DF
:10189C00CF93DF9300D0CDB7DEB78A838FEF8983E8
:1018AC0080E80E94D60A89838981882311F0898176
:1018BC000AC08A810E94D60A89838981882311F003
:1018CC00898101C080E00F900F90DF91CF91089536
:1018DC00CF93DF93EC0190E0E92FF0E0EE0FFF1FC8
:1018EC00E85BFC4F8081811102C081810EC0A88110
:1018FC00B9812C91821305C091811196B983A8836B
:10190C0001C09F5F9B3040F3892FDF91CF910895E9
:10191C00CF93DF9300D0CDB7DEB78A838FEF898367
:10192C000E94280989838981882311F089810AC042
:10193C008A810E949B0A89838981882311F089817D
:0E194C0001C080E00F900F90DF91CF910895C1
:10195A00A0E0B0E0E3EBFCE00C94D40C6C01EB01EA
:10196A008A017B01E40EF51ECE15DF0541F089914F
:10197A00B601082E000C990B0E949508F5CFC801F4
:0A198A00CDB7DEB7E8E00C94F00CD6
:101994002F923F924F925F926F927F928F929F927B
:1019A400AF92BF92CF92DF92EF92FF920F931F9369
:1019B400CF93DF93CDB7DEB7CA1BDB0B0FB6F8941A
:0819C400DEBF0FBECDBF099488
:1019CC002A88398848885F846E847D848C849B84C3
:1019DC00AA84B984C884DF80EE80FD800C811B81D1
:1019EC00AA81B981CE0FD11D0FB6F894DEBF0FBE00
:0619FC00CDBFED010895CE
:101A0200A0E0B0E0E7E0FDE00C94DA0CAE014B5F41
:101A12005F4FFA0161917191AF01E0919503F091ED
:101A22009603808191810E94190DE2E00C94F60CDC
:101A3200A2E0B0E0EFE1FDE00C94D80C8C015A83F7
:101A42004983AE014F5F5F4F0E945F0AF801208118
:101A520024FF02C08FEF9FEF2296E4E00C94F40C77
:101A6200A0E0B0E0E7E3FDE00C94DA0CAE01475FE2
:101A72005F4F6F8178858D819E810E94980DE2E093
:041A82000C94F60CBE
:101A86001F920F920FB60F921124CF93DF93CDB70B
:101A9600DEB70000DF91CF910F900FBE0F901F9021
:021AA600189591
:101AA800FC01AF014F5F5F4F2081222311F0FA0143
:0C1AB800F8CF9F01281B390BC9010895CD
:101AC400CF93DF93CDB7DEB78CEB90E024E9FC0134
:0A1AD40020830000DF91CF910895F8
:101ADE00CF93DF9300D0CDB7DEB79A838983000012
:0A1AEE000F900F90DF91CF91089543
:101AF800EC010E94A40D0E94A30DCE010E94A50D29
:061B0800CE010E94A10DB8
:101B0E009C01215631092A31310510F48F75992720
:021B1E00089528
:101B20009C01215431092A31310508F4806208955D
:0E1B30009A01AB016FEF7FE70E94100B089542
:041B3E000C94000003
:041B42000E94970066
:021B4600089500
:021B48000895FE
:021B4A000895FC
:101B4C0025642073656B756E6465722074696C62B4
:101B5C006167652074696C20416461667275697493
:101B6C0020446973706C6179204F70737461727466
:101B7C000A003078257800446973706C61792043D1
:101B8C006F6465203A2025730A000A56656E7465E9
:101B9C007220692025642073656B756E64657220F4
:101BAC0070E52041646166727569742044697370D4
:101BBC006C6179204F7073746172740A000A0A4E5A
:101BCC00752073746172746572207669206D65641A
:101BDC0020617420746573746520446973706C6142
:101BEC007965742021212100446973706C6179201E
:101BFC004E4F542070726F7065726C7920696E69EB
:101C0C007469616C697A65642021212100446973CF
:101C1C00706C61792070726F7065726C7920696E6E
:101C2C00697469616C697A656420692044697370B0
:101C3C006C617954657374436F64652021212100B4
:101C4C0046656A6C207665642066756E6B74696F88
:101C5C006E656E203A20535344313330365F436CFB
:101C6C0065617253637265656E0046656A6C2076B9
:101C7C0065642066756E6B74696F6E656E203A20B4
:101C8C00535344313330365F536574506F736974FA
:101C9C00696F6E2825642C2564290A0068347064E9
:101CAC00303131313235207374797265720046658A
:101CBC006A6C207665642066756E6B74696F6E65F0
:101CCC006E203A20535344313330365F447261777F
:101CDC00537472696E67282757616974696E67203F
:101CEC00212121272C204E4F524D414C2900446973
:101CFC0073706C61792070726F7065726C79206989
:101D0C006E697469616C697A6564206F6720696EAD
:101D1C0067656E2066656A6C2068657265667465B9
:101D2C00722021212100446973706C6179207072DA
:101D3C006F7065726C7920696E697469616C697A0F
:101D4C006564206D656E2066656A6C2068657265D9
:101D5C0066746572202121210025640054696D652B
:101D6C0072436F756E746572203A2025640A0049BF
:101D7C006E74657272757074436F756E74657220D3
:061D8C003A2025730A0055
:101D920068076C094C836A9074A07AC000806888D6
:061DA20000846C82008148
:081DA8006F0D00006F0D00003B
:071DB000286E756C6C290020
:061DB700286E696C290092
:021DBD0097038A
:00000001FF
